{
  "_format": "hh-sol-artifact-1",
  "contractName": "DivesLedger",
  "sourceName": "contracts/DivesLedger.sol",
  "abi": [
    {
      "inputs": [],
      "stateMutability": "nonpayable",
      "type": "constructor"
    },
    {
      "inputs": [
        {
          "internalType": "address",
          "name": "sender",
          "type": "address"
        },
        {
          "internalType": "uint256",
          "name": "tokenId",
          "type": "uint256"
        },
        {
          "internalType": "address",
          "name": "owner",
          "type": "address"
        }
      ],
      "name": "ERC721IncorrectOwner",
      "type": "error"
    },
    {
      "inputs": [
        {
          "internalType": "address",
          "name": "operator",
          "type": "address"
        },
        {
          "internalType": "uint256",
          "name": "tokenId",
          "type": "uint256"
        }
      ],
      "name": "ERC721InsufficientApproval",
      "type": "error"
    },
    {
      "inputs": [
        {
          "internalType": "address",
          "name": "approver",
          "type": "address"
        }
      ],
      "name": "ERC721InvalidApprover",
      "type": "error"
    },
    {
      "inputs": [
        {
          "internalType": "address",
          "name": "operator",
          "type": "address"
        }
      ],
      "name": "ERC721InvalidOperator",
      "type": "error"
    },
    {
      "inputs": [
        {
          "internalType": "address",
          "name": "owner",
          "type": "address"
        }
      ],
      "name": "ERC721InvalidOwner",
      "type": "error"
    },
    {
      "inputs": [
        {
          "internalType": "address",
          "name": "receiver",
          "type": "address"
        }
      ],
      "name": "ERC721InvalidReceiver",
      "type": "error"
    },
    {
      "inputs": [
        {
          "internalType": "address",
          "name": "sender",
          "type": "address"
        }
      ],
      "name": "ERC721InvalidSender",
      "type": "error"
    },
    {
      "inputs": [
        {
          "internalType": "uint256",
          "name": "tokenId",
          "type": "uint256"
        }
      ],
      "name": "ERC721NonexistentToken",
      "type": "error"
    },
    {
      "inputs": [
        {
          "internalType": "address",
          "name": "owner",
          "type": "address"
        }
      ],
      "name": "OwnableInvalidOwner",
      "type": "error"
    },
    {
      "inputs": [
        {
          "internalType": "address",
          "name": "account",
          "type": "address"
        }
      ],
      "name": "OwnableUnauthorizedAccount",
      "type": "error"
    },
    {
      "anonymous": false,
      "inputs": [
        {
          "indexed": true,
          "internalType": "address",
          "name": "owner",
          "type": "address"
        },
        {
          "indexed": true,
          "internalType": "address",
          "name": "approved",
          "type": "address"
        },
        {
          "indexed": true,
          "internalType": "uint256",
          "name": "tokenId",
          "type": "uint256"
        }
      ],
      "name": "Approval",
      "type": "event"
    },
    {
      "anonymous": false,
      "inputs": [
        {
          "indexed": true,
          "internalType": "address",
          "name": "owner",
          "type": "address"
        },
        {
          "indexed": true,
          "internalType": "address",
          "name": "operator",
          "type": "address"
        },
        {
          "indexed": false,
          "internalType": "bool",
          "name": "approved",
          "type": "bool"
        }
      ],
      "name": "ApprovalForAll",
      "type": "event"
    },
    {
      "anonymous": false,
      "inputs": [
        {
          "indexed": true,
          "internalType": "address",
          "name": "diver",
          "type": "address"
        },
        {
          "indexed": false,
          "internalType": "string",
          "name": "certName",
          "type": "string"
        },
        {
          "indexed": false,
          "internalType": "string",
          "name": "issuingOrganization",
          "type": "string"
        },
        {
          "indexed": false,
          "internalType": "uint256",
          "name": "issueDate",
          "type": "uint256"
        }
      ],
      "name": "CertificationAdded",
      "type": "event"
    },
    {
      "anonymous": false,
      "inputs": [
        {
          "indexed": false,
          "internalType": "uint256",
          "name": "id",
          "type": "uint256"
        },
        {
          "indexed": true,
          "internalType": "address",
          "name": "diver",
          "type": "address"
        },
        {
          "indexed": false,
          "internalType": "string",
          "name": "diversSurnames",
          "type": "string"
        },
        {
          "indexed": false,
          "internalType": "string",
          "name": "diversFirstNames",
          "type": "string"
        },
        {
          "indexed": false,
          "internalType": "string",
          "name": "otherDiverNames",
          "type": "string"
        },
        {
          "indexed": false,
          "internalType": "string",
          "name": "location",
          "type": "string"
        },
        {
          "indexed": false,
          "internalType": "uint256",
          "name": "date",
          "type": "uint256"
        },
        {
          "indexed": false,
          "internalType": "uint256",
          "name": "depth",
          "type": "uint256"
        },
        {
          "indexed": false,
          "internalType": "uint256",
          "name": "duration",
          "type": "uint256"
        },
        {
          "indexed": false,
          "internalType": "string",
          "name": "notes",
          "type": "string"
        }
      ],
      "name": "DiveAdded",
      "type": "event"
    },
    {
      "anonymous": false,
      "inputs": [
        {
          "indexed": false,
          "internalType": "uint256",
          "name": "id",
          "type": "uint256"
        },
        {
          "indexed": true,
          "internalType": "address",
          "name": "instructor",
          "type": "address"
        }
      ],
      "name": "DiveValidated",
      "type": "event"
    },
    {
      "anonymous": false,
      "inputs": [
        {
          "indexed": true,
          "internalType": "address",
          "name": "previousOwner",
          "type": "address"
        },
        {
          "indexed": true,
          "internalType": "address",
          "name": "newOwner",
          "type": "address"
        }
      ],
      "name": "OwnershipTransferred",
      "type": "event"
    },
    {
      "anonymous": false,
      "inputs": [
        {
          "indexed": true,
          "internalType": "address",
          "name": "from",
          "type": "address"
        },
        {
          "indexed": true,
          "internalType": "address",
          "name": "to",
          "type": "address"
        },
        {
          "indexed": true,
          "internalType": "uint256",
          "name": "tokenId",
          "type": "uint256"
        }
      ],
      "name": "Transfer",
      "type": "event"
    },
    {
      "inputs": [
        {
          "internalType": "address",
          "name": "_diver",
          "type": "address"
        },
        {
          "internalType": "uint256",
          "name": "_certLevel",
          "type": "uint256"
        },
        {
          "internalType": "string",
          "name": "_issuingOrganization",
          "type": "string"
        },
        {
          "internalType": "uint256",
          "name": "_issueDate",
          "type": "uint256"
        }
      ],
      "name": "addCertification",
      "outputs": [],
      "stateMutability": "nonpayable",
      "type": "function"
    },
    {
      "inputs": [
        {
          "internalType": "string",
          "name": "_location",
          "type": "string"
        },
        {
          "internalType": "string",
          "name": "_diverSurname",
          "type": "string"
        },
        {
          "internalType": "string",
          "name": "_diverFirstName",
          "type": "string"
        },
        {
          "internalType": "string",
          "name": "_otherDiverNames",
          "type": "string"
        },
        {
          "internalType": "uint256",
          "name": "_date",
          "type": "uint256"
        },
        {
          "internalType": "uint256",
          "name": "_depth",
          "type": "uint256"
        },
        {
          "internalType": "uint256",
          "name": "_duration",
          "type": "uint256"
        },
        {
          "internalType": "string",
          "name": "_notes",
          "type": "string"
        }
      ],
      "name": "addDive",
      "outputs": [],
      "stateMutability": "nonpayable",
      "type": "function"
    },
    {
      "inputs": [
        {
          "internalType": "address",
          "name": "to",
          "type": "address"
        },
        {
          "internalType": "uint256",
          "name": "tokenId",
          "type": "uint256"
        }
      ],
      "name": "approve",
      "outputs": [],
      "stateMutability": "nonpayable",
      "type": "function"
    },
    {
      "inputs": [
        {
          "internalType": "address",
          "name": "owner",
          "type": "address"
        }
      ],
      "name": "balanceOf",
      "outputs": [
        {
          "internalType": "uint256",
          "name": "",
          "type": "uint256"
        }
      ],
      "stateMutability": "view",
      "type": "function"
    },
    {
      "inputs": [
        {
          "internalType": "address",
          "name": "",
          "type": "address"
        },
        {
          "internalType": "uint256",
          "name": "",
          "type": "uint256"
        }
      ],
      "name": "diverCertifications",
      "outputs": [
        {
          "internalType": "uint256",
          "name": "certLevel",
          "type": "uint256"
        },
        {
          "internalType": "string",
          "name": "certName",
          "type": "string"
        },
        {
          "internalType": "string",
          "name": "issuingOrganization",
          "type": "string"
        },
        {
          "internalType": "uint256",
          "name": "issueDate",
          "type": "uint256"
        }
      ],
      "stateMutability": "view",
      "type": "function"
    },
    {
      "inputs": [
        {
          "internalType": "address",
          "name": "",
          "type": "address"
        },
        {
          "internalType": "uint256",
          "name": "",
          "type": "uint256"
        }
      ],
      "name": "diverDives",
      "outputs": [
        {
          "internalType": "uint256",
          "name": "",
          "type": "uint256"
        }
      ],
      "stateMutability": "view",
      "type": "function"
    },
    {
      "inputs": [
        {
          "internalType": "uint256",
          "name": "",
          "type": "uint256"
        }
      ],
      "name": "dives",
      "outputs": [
        {
          "internalType": "uint256",
          "name": "id",
          "type": "uint256"
        },
        {
          "internalType": "address",
          "name": "diver",
          "type": "address"
        },
        {
          "internalType": "string",
          "name": "diverSurname",
          "type": "string"
        },
        {
          "internalType": "string",
          "name": "diverFirstName",
          "type": "string"
        },
        {
          "internalType": "string",
          "name": "otherDiverNames",
          "type": "string"
        },
        {
          "internalType": "string",
          "name": "location",
          "type": "string"
        },
        {
          "internalType": "uint256",
          "name": "date",
          "type": "uint256"
        },
        {
          "internalType": "uint256",
          "name": "depth",
          "type": "uint256"
        },
        {
          "internalType": "uint256",
          "name": "duration",
          "type": "uint256"
        },
        {
          "internalType": "string",
          "name": "notes",
          "type": "string"
        },
        {
          "internalType": "bool",
          "name": "validated",
          "type": "bool"
        }
      ],
      "stateMutability": "view",
      "type": "function"
    },
    {
      "inputs": [
        {
          "internalType": "uint256",
          "name": "tokenId",
          "type": "uint256"
        }
      ],
      "name": "getApproved",
      "outputs": [
        {
          "internalType": "address",
          "name": "",
          "type": "address"
        }
      ],
      "stateMutability": "view",
      "type": "function"
    },
    {
      "inputs": [
        {
          "internalType": "uint256",
          "name": "_certLevel",
          "type": "uint256"
        }
      ],
      "name": "getCertificationName",
      "outputs": [
        {
          "internalType": "string",
          "name": "",
          "type": "string"
        }
      ],
      "stateMutability": "pure",
      "type": "function"
    },
    {
      "inputs": [
        {
          "internalType": "address",
          "name": "_diver",
          "type": "address"
        }
      ],
      "name": "getCertifications",
      "outputs": [
        {
          "components": [
            {
              "internalType": "uint256",
              "name": "certLevel",
              "type": "uint256"
            },
            {
              "internalType": "string",
              "name": "certName",
              "type": "string"
            },
            {
              "internalType": "string",
              "name": "issuingOrganization",
              "type": "string"
            },
            {
              "internalType": "uint256",
              "name": "issueDate",
              "type": "uint256"
            }
          ],
          "internalType": "struct DivesLedger.Certification[]",
          "name": "",
          "type": "tuple[]"
        }
      ],
      "stateMutability": "view",
      "type": "function"
    },
    {
      "inputs": [],
      "name": "getCurrentDiveId",
      "outputs": [
        {
          "internalType": "uint256",
          "name": "",
          "type": "uint256"
        }
      ],
      "stateMutability": "view",
      "type": "function"
    },
    {
      "inputs": [
        {
          "internalType": "uint256",
          "name": "_id",
          "type": "uint256"
        }
      ],
      "name": "getDive",
      "outputs": [
        {
          "components": [
            {
              "internalType": "uint256",
              "name": "id",
              "type": "uint256"
            },
            {
              "internalType": "address",
              "name": "diver",
              "type": "address"
            },
            {
              "internalType": "string",
              "name": "diverSurname",
              "type": "string"
            },
            {
              "internalType": "string",
              "name": "diverFirstName",
              "type": "string"
            },
            {
              "internalType": "string",
              "name": "otherDiverNames",
              "type": "string"
            },
            {
              "internalType": "string",
              "name": "location",
              "type": "string"
            },
            {
              "internalType": "uint256",
              "name": "date",
              "type": "uint256"
            },
            {
              "internalType": "uint256",
              "name": "depth",
              "type": "uint256"
            },
            {
              "internalType": "uint256",
              "name": "duration",
              "type": "uint256"
            },
            {
              "internalType": "string",
              "name": "notes",
              "type": "string"
            },
            {
              "internalType": "bool",
              "name": "validated",
              "type": "bool"
            }
          ],
          "internalType": "struct DivesLedger.Dive",
          "name": "",
          "type": "tuple"
        }
      ],
      "stateMutability": "view",
      "type": "function"
    },
    {
      "inputs": [
        {
          "internalType": "address",
          "name": "_diver",
          "type": "address"
        }
      ],
      "name": "getDivesByDiver",
      "outputs": [
        {
          "components": [
            {
              "internalType": "uint256",
              "name": "id",
              "type": "uint256"
            },
            {
              "internalType": "address",
              "name": "diver",
              "type": "address"
            },
            {
              "internalType": "string",
              "name": "diverSurname",
              "type": "string"
            },
            {
              "internalType": "string",
              "name": "diverFirstName",
              "type": "string"
            },
            {
              "internalType": "string",
              "name": "otherDiverNames",
              "type": "string"
            },
            {
              "internalType": "string",
              "name": "location",
              "type": "string"
            },
            {
              "internalType": "uint256",
              "name": "date",
              "type": "uint256"
            },
            {
              "internalType": "uint256",
              "name": "depth",
              "type": "uint256"
            },
            {
              "internalType": "uint256",
              "name": "duration",
              "type": "uint256"
            },
            {
              "internalType": "string",
              "name": "notes",
              "type": "string"
            },
            {
              "internalType": "bool",
              "name": "validated",
              "type": "bool"
            }
          ],
          "internalType": "struct DivesLedger.Dive[]",
          "name": "",
          "type": "tuple[]"
        }
      ],
      "stateMutability": "view",
      "type": "function"
    },
    {
      "inputs": [
        {
          "internalType": "address",
          "name": "owner",
          "type": "address"
        },
        {
          "internalType": "address",
          "name": "operator",
          "type": "address"
        }
      ],
      "name": "isApprovedForAll",
      "outputs": [
        {
          "internalType": "bool",
          "name": "",
          "type": "bool"
        }
      ],
      "stateMutability": "view",
      "type": "function"
    },
    {
      "inputs": [
        {
          "internalType": "address",
          "name": "_diver",
          "type": "address"
        }
      ],
      "name": "isInstructor",
      "outputs": [
        {
          "internalType": "bool",
          "name": "",
          "type": "bool"
        }
      ],
      "stateMutability": "view",
      "type": "function"
    },
    {
      "inputs": [],
      "name": "name",
      "outputs": [
        {
          "internalType": "string",
          "name": "",
          "type": "string"
        }
      ],
      "stateMutability": "view",
      "type": "function"
    },
    {
      "inputs": [],
      "name": "nextDiveId",
      "outputs": [
        {
          "internalType": "uint256",
          "name": "",
          "type": "uint256"
        }
      ],
      "stateMutability": "view",
      "type": "function"
    },
    {
      "inputs": [],
      "name": "owner",
      "outputs": [
        {
          "internalType": "address",
          "name": "",
          "type": "address"
        }
      ],
      "stateMutability": "view",
      "type": "function"
    },
    {
      "inputs": [
        {
          "internalType": "uint256",
          "name": "tokenId",
          "type": "uint256"
        }
      ],
      "name": "ownerOf",
      "outputs": [
        {
          "internalType": "address",
          "name": "",
          "type": "address"
        }
      ],
      "stateMutability": "view",
      "type": "function"
    },
    {
      "inputs": [],
      "name": "renounceOwnership",
      "outputs": [],
      "stateMutability": "nonpayable",
      "type": "function"
    },
    {
      "inputs": [
        {
          "internalType": "address",
          "name": "to",
          "type": "address"
        },
        {
          "internalType": "uint256",
          "name": "tokenId",
          "type": "uint256"
        }
      ],
      "name": "safeMint",
      "outputs": [],
      "stateMutability": "nonpayable",
      "type": "function"
    },
    {
      "inputs": [
        {
          "internalType": "address",
          "name": "from",
          "type": "address"
        },
        {
          "internalType": "address",
          "name": "to",
          "type": "address"
        },
        {
          "internalType": "uint256",
          "name": "tokenId",
          "type": "uint256"
        }
      ],
      "name": "safeTransferFrom",
      "outputs": [],
      "stateMutability": "nonpayable",
      "type": "function"
    },
    {
      "inputs": [
        {
          "internalType": "address",
          "name": "from",
          "type": "address"
        },
        {
          "internalType": "address",
          "name": "to",
          "type": "address"
        },
        {
          "internalType": "uint256",
          "name": "tokenId",
          "type": "uint256"
        },
        {
          "internalType": "bytes",
          "name": "data",
          "type": "bytes"
        }
      ],
      "name": "safeTransferFrom",
      "outputs": [],
      "stateMutability": "nonpayable",
      "type": "function"
    },
    {
      "inputs": [
        {
          "internalType": "address",
          "name": "operator",
          "type": "address"
        },
        {
          "internalType": "bool",
          "name": "approved",
          "type": "bool"
        }
      ],
      "name": "setApprovalForAll",
      "outputs": [],
      "stateMutability": "nonpayable",
      "type": "function"
    },
    {
      "inputs": [
        {
          "internalType": "bytes4",
          "name": "interfaceId",
          "type": "bytes4"
        }
      ],
      "name": "supportsInterface",
      "outputs": [
        {
          "internalType": "bool",
          "name": "",
          "type": "bool"
        }
      ],
      "stateMutability": "view",
      "type": "function"
    },
    {
      "inputs": [],
      "name": "symbol",
      "outputs": [
        {
          "internalType": "string",
          "name": "",
          "type": "string"
        }
      ],
      "stateMutability": "view",
      "type": "function"
    },
    {
      "inputs": [
        {
          "internalType": "uint256",
          "name": "tokenId",
          "type": "uint256"
        }
      ],
      "name": "tokenURI",
      "outputs": [
        {
          "internalType": "string",
          "name": "",
          "type": "string"
        }
      ],
      "stateMutability": "view",
      "type": "function"
    },
    {
      "inputs": [
        {
          "internalType": "address",
          "name": "from",
          "type": "address"
        },
        {
          "internalType": "address",
          "name": "to",
          "type": "address"
        },
        {
          "internalType": "uint256",
          "name": "tokenId",
          "type": "uint256"
        }
      ],
      "name": "transferFrom",
      "outputs": [],
      "stateMutability": "nonpayable",
      "type": "function"
    },
    {
      "inputs": [
        {
          "internalType": "address",
          "name": "newOwner",
          "type": "address"
        }
      ],
      "name": "transferOwnership",
      "outputs": [],
      "stateMutability": "nonpayable",
      "type": "function"
    },
    {
      "inputs": [
        {
          "internalType": "uint256",
          "name": "_id",
          "type": "uint256"
        }
      ],
      "name": "validateDive",
      "outputs": [],
      "stateMutability": "nonpayable",
      "type": "function"
    }
  ],
  "bytecode": "0x60806040523480156200001157600080fd5b50336040518060400160405280600b81526020017f44697665734c65646765720000000000000000000000000000000000000000008152506040518060400160405280600381526020017f444c470000000000000000000000000000000000000000000000000000000000815250816000908162000090919062000472565b508060019081620000a2919062000472565b505050600073ffffffffffffffffffffffffffffffffffffffff168173ffffffffffffffffffffffffffffffffffffffff16036200011a5760006040517f1e4fbdf70000000000000000000000000000000000000000000000000000000081526004016200011191906200059e565b60405180910390fd5b6200012b816200013260201b60201c565b50620005bb565b6000600660009054906101000a900473ffffffffffffffffffffffffffffffffffffffff16905081600660006101000a81548173ffffffffffffffffffffffffffffffffffffffff021916908373ffffffffffffffffffffffffffffffffffffffff1602179055508173ffffffffffffffffffffffffffffffffffffffff168173ffffffffffffffffffffffffffffffffffffffff167f8be0079c531659141344cd1fd0a4f28419497f9722a3daafe3b4186f6b6457e060405160405180910390a35050565b600081519050919050565b7f4e487b7100000000000000000000000000000000000000000000000000000000600052604160045260246000fd5b7f4e487b7100000000000000000000000000000000000000000000000000000000600052602260045260246000fd5b600060028204905060018216806200027a57607f821691505b60208210810362000290576200028f62000232565b5b50919050565b60008190508160005260206000209050919050565b60006020601f8301049050919050565b600082821b905092915050565b600060088302620002fa7fffffffffffffffffffffffffffffffffffffffffffffffffffffffffffffffff82620002bb565b620003068683620002bb565b95508019841693508086168417925050509392505050565b6000819050919050565b6000819050919050565b6000620003536200034d62000347846200031e565b62000328565b6200031e565b9050919050565b6000819050919050565b6200036f8362000332565b620003876200037e826200035a565b848454620002c8565b825550505050565b600090565b6200039e6200038f565b620003ab81848462000364565b505050565b5b81811015620003d357620003c760008262000394565b600181019050620003b1565b5050565b601f8211156200042257620003ec8162000296565b620003f784620002ab565b8101602085101562000407578190505b6200041f6200041685620002ab565b830182620003b0565b50505b505050565b600082821c905092915050565b6000620004476000198460080262000427565b1980831691505092915050565b600062000462838362000434565b9150826002028217905092915050565b6200047d82620001f8565b67ffffffffffffffff81111562000499576200049862000203565b5b620004a5825462000261565b620004b2828285620003d7565b600060209050601f831160018114620004ea5760008415620004d5578287015190505b620004e1858262000454565b86555062000551565b601f198416620004fa8662000296565b60005b828110156200052457848901518255600182019150602085019450602081019050620004fd565b8683101562000544578489015162000540601f89168262000434565b8355505b6001600288020188555050505b505050505050565b600073ffffffffffffffffffffffffffffffffffffffff82169050919050565b6000620005868262000559565b9050919050565b620005988162000579565b82525050565b6000602082019050620005b560008301846200058d565b92915050565b614b5c80620005cb6000396000f3fe608060405234801561001057600080fd5b50600436106101da5760003560e01c80638da5cb5b11610104578063b88d4fde116100a2578063e985e9c511610071578063e985e9c5146105a2578063f2fde38b146105d2578063f6719233146105ee578063fa0020131461060a576101da565b8063b88d4fde1461050a578063bcee2e1814610526578063c87b56dd14610542578063df1d7b5714610572576101da565b8063a1448194116100de578063a14481941461046f578063a22cb4651461048b578063a3afcea2146104a7578063b1e488ac146104d7576101da565b80638da5cb5b1461040357806395d89b4114610421578063983bf2901461043f576101da565b80632aafdf791161017c5780636352211e1161014b5780636352211e14610369578063677cc2911461039957806370a08231146103c9578063715018a6146103f9576101da565b80632aafdf79146102e1578063312aed13146102ff5780633d7d477c1461032f57806342842e0e1461034d576101da565b8063095ea7b3116101b8578063095ea7b31461025d57806311fa43651461027957806320948192146102a957806323b872dd146102c5576101da565b806301ffc9a7146101df57806306fdde031461020f578063081812fc1461022d575b600080fd5b6101f960048036038101906101f491906134db565b610644565b6040516102069190613523565b60405180910390f35b610217610726565b60405161022491906135ce565b60405180910390f35b61024760048036038101906102429190613626565b6107b8565b6040516102549190613694565b60405180910390f35b610277600480360381019061027291906136db565b6107d4565b005b610293600480360381019061028e9190613626565b6107ea565b6040516102a0919061389d565b60405180910390f35b6102c360048036038101906102be91906139f4565b610bdd565b005b6102df60048036038101906102da9190613b36565b610e46565b005b6102e9610f48565b6040516102f69190613b98565b60405180910390f35b610319600480360381019061031491906136db565b610f52565b6040516103269190613b98565b60405180910390f35b610337610f83565b6040516103449190613b98565b60405180910390f35b61036760048036038101906103629190613b36565b610f89565b005b610383600480360381019061037e9190613626565b610fa9565b6040516103909190613694565b60405180910390f35b6103b360048036038101906103ae9190613bb3565b610fbb565b6040516103c09190613d0c565b60405180910390f35b6103e360048036038101906103de9190613bb3565b611191565b6040516103f09190613b98565b60405180910390f35b61040161124b565b005b61040b61125f565b6040516104189190613694565b60405180910390f35b610429611289565b60405161043691906135ce565b60405180910390f35b61045960048036038101906104549190613bb3565b61131b565b6040516104669190613efb565b60405180910390f35b610489600480360381019061048491906136db565b6117f6565b005b6104a560048036038101906104a09190613f49565b61180c565b005b6104c160048036038101906104bc9190613bb3565b611822565b6040516104ce9190613523565b60405180910390f35b6104f160048036038101906104ec91906136db565b6118c5565b6040516105019493929190613f89565b60405180910390f35b610524600480360381019061051f919061407d565b611a22565b005b610540600480360381019061053b9190614100565b611a3f565b005b61055c60048036038101906105579190613626565b611c39565b60405161056991906135ce565b60405180910390f35b61058c60048036038101906105879190613626565b611ca2565b60405161059991906135ce565b60405180910390f35b6105bc60048036038101906105b79190614183565b611f5a565b6040516105c99190613523565b60405180910390f35b6105ec60048036038101906105e79190613bb3565b611fee565b005b61060860048036038101906106039190613626565b612074565b005b610624600480360381019061061f9190613626565b612206565b60405161063b9b9a999897969594939291906141c3565b60405180910390f35b60007f80ac58cd000000000000000000000000000000000000000000000000000000007bffffffffffffffffffffffffffffffffffffffffffffffffffffffff1916827bffffffffffffffffffffffffffffffffffffffffffffffffffffffff1916148061070f57507f5b5e139f000000000000000000000000000000000000000000000000000000007bffffffffffffffffffffffffffffffffffffffffffffffffffffffff1916827bffffffffffffffffffffffffffffffffffffffffffffffffffffffff1916145b8061071f575061071e82612535565b5b9050919050565b606060008054610735906142c0565b80601f0160208091040260200160405190810160405280929190818152602001828054610761906142c0565b80156107ae5780601f10610783576101008083540402835291602001916107ae565b820191906000526020600020905b81548152906001019060200180831161079157829003601f168201915b5050505050905090565b60006107c38261259f565b506107cd82612627565b9050919050565b6107e682826107e1612664565b61266c565b5050565b6107f26133fd565b6000821015801561080557506007548211155b610844576040517f08c379a000000000000000000000000000000000000000000000000000000000815260040161083b9061433d565b60405180910390fd5b6008600083815260200190815260200160002060405180610160016040529081600082015481526020016001820160009054906101000a900473ffffffffffffffffffffffffffffffffffffffff1673ffffffffffffffffffffffffffffffffffffffff1673ffffffffffffffffffffffffffffffffffffffff1681526020016002820180546108d3906142c0565b80601f01602080910402602001604051908101604052809291908181526020018280546108ff906142c0565b801561094c5780601f106109215761010080835404028352916020019161094c565b820191906000526020600020905b81548152906001019060200180831161092f57829003601f168201915b50505050508152602001600382018054610965906142c0565b80601f0160208091040260200160405190810160405280929190818152602001828054610991906142c0565b80156109de5780601f106109b3576101008083540402835291602001916109de565b820191906000526020600020905b8154815290600101906020018083116109c157829003601f168201915b505050505081526020016004820180546109f7906142c0565b80601f0160208091040260200160405190810160405280929190818152602001828054610a23906142c0565b8015610a705780601f10610a4557610100808354040283529160200191610a70565b820191906000526020600020905b815481529060010190602001808311610a5357829003601f168201915b50505050508152602001600582018054610a89906142c0565b80601f0160208091040260200160405190810160405280929190818152602001828054610ab5906142c0565b8015610b025780601f10610ad757610100808354040283529160200191610b02565b820191906000526020600020905b815481529060010190602001808311610ae557829003601f168201915b50505050508152602001600682015481526020016007820154815260200160088201548152602001600982018054610b39906142c0565b80601f0160208091040260200160405190810160405280929190818152602001828054610b65906142c0565b8015610bb25780601f10610b8757610100808354040283529160200191610bb2565b820191906000526020600020905b815481529060010190602001808311610b9557829003601f168201915b50505050508152602001600a820160009054906101000a900460ff1615151515815250509050919050565b60405180610160016040528060075481526020013373ffffffffffffffffffffffffffffffffffffffff168152602001888152602001878152602001868152602001898152602001858152602001848152602001838152602001828152602001600015158152506008600060075481526020019081526020016000206000820151816000015560208201518160010160006101000a81548173ffffffffffffffffffffffffffffffffffffffff021916908373ffffffffffffffffffffffffffffffffffffffff1602179055506040820151816002019081610cbf9190614509565b506060820151816003019081610cd59190614509565b506080820151816004019081610ceb9190614509565b5060a0820151816005019081610d019190614509565b5060c0820151816006015560e082015181600701556101008201518160080155610120820151816009019081610d379190614509565b5061014082015181600a0160006101000a81548160ff021916908315150217905550905050600960003373ffffffffffffffffffffffffffffffffffffffff1673ffffffffffffffffffffffffffffffffffffffff16815260200190815260200160002060075490806001815401808255809150506001900390600052602060002001600090919091909150553373ffffffffffffffffffffffffffffffffffffffff167f60ad50c6d6f9be7890c9486d5bbd4b86d23af23151987804e30d82c3f2622b526007548989898d8a8a8a8a604051610e1c999897969594939291906145db565b60405180910390a260076000815480929190610e37906146ba565b91905055505050505050505050565b600073ffffffffffffffffffffffffffffffffffffffff168273ffffffffffffffffffffffffffffffffffffffff1603610eb85760006040517f64a0ae92000000000000000000000000000000000000000000000000000000008152600401610eaf9190613694565b60405180910390fd5b6000610ecc8383610ec7612664565b61267e565b90508373ffffffffffffffffffffffffffffffffffffffff168173ffffffffffffffffffffffffffffffffffffffff1614610f42578382826040517f64283d7b000000000000000000000000000000000000000000000000000000008152600401610f3993929190614702565b60405180910390fd5b50505050565b6000600754905090565b60096020528160005260406000208181548110610f6e57600080fd5b90600052602060002001600091509150505481565b60075481565b610fa483838360405180602001604052806000815250611a22565b505050565b6000610fb48261259f565b9050919050565b6060600a60008373ffffffffffffffffffffffffffffffffffffffff1673ffffffffffffffffffffffffffffffffffffffff168152602001908152602001600020805480602002602001604051908101604052809291908181526020016000905b82821015611186578382906000526020600020906004020160405180608001604052908160008201548152602001600182018054611059906142c0565b80601f0160208091040260200160405190810160405280929190818152602001828054611085906142c0565b80156110d25780601f106110a7576101008083540402835291602001916110d2565b820191906000526020600020905b8154815290600101906020018083116110b557829003601f168201915b505050505081526020016002820180546110eb906142c0565b80601f0160208091040260200160405190810160405280929190818152602001828054611117906142c0565b80156111645780601f1061113957610100808354040283529160200191611164565b820191906000526020600020905b81548152906001019060200180831161114757829003601f168201915b505050505081526020016003820154815250508152602001906001019061101c565b505050509050919050565b60008073ffffffffffffffffffffffffffffffffffffffff168273ffffffffffffffffffffffffffffffffffffffff16036112045760006040517f89c62b640000000000000000000000000000000000000000000000000000000081526004016111fb9190613694565b60405180910390fd5b600360008373ffffffffffffffffffffffffffffffffffffffff1673ffffffffffffffffffffffffffffffffffffffff168152602001908152602001600020549050919050565b611253612898565b61125d600061291f565b565b6000600660009054906101000a900473ffffffffffffffffffffffffffffffffffffffff16905090565b606060018054611298906142c0565b80601f01602080910402602001604051908101604052809291908181526020018280546112c4906142c0565b80156113115780601f106112e657610100808354040283529160200191611311565b820191906000526020600020905b8154815290600101906020018083116112f457829003601f168201915b5050505050905090565b60606000600960008473ffffffffffffffffffffffffffffffffffffffff1673ffffffffffffffffffffffffffffffffffffffff1681526020019081526020016000208054806020026020016040519081016040528092919081815260200182805480156113a857602002820191906000526020600020905b815481526020019060010190808311611394575b505050505090506000815167ffffffffffffffff8111156113cc576113cb6138c9565b5b60405190808252806020026020018201604052801561140557816020015b6113f26133fd565b8152602001906001900390816113ea5790505b50905060005b82518110156117eb576008600084838151811061142b5761142a614739565b5b6020026020010151815260200190815260200160002060405180610160016040529081600082015481526020016001820160009054906101000a900473ffffffffffffffffffffffffffffffffffffffff1673ffffffffffffffffffffffffffffffffffffffff1673ffffffffffffffffffffffffffffffffffffffff1681526020016002820180546114bd906142c0565b80601f01602080910402602001604051908101604052809291908181526020018280546114e9906142c0565b80156115365780601f1061150b57610100808354040283529160200191611536565b820191906000526020600020905b81548152906001019060200180831161151957829003601f168201915b5050505050815260200160038201805461154f906142c0565b80601f016020809104026020016040519081016040528092919081815260200182805461157b906142c0565b80156115c85780601f1061159d576101008083540402835291602001916115c8565b820191906000526020600020905b8154815290600101906020018083116115ab57829003601f168201915b505050505081526020016004820180546115e1906142c0565b80601f016020809104026020016040519081016040528092919081815260200182805461160d906142c0565b801561165a5780601f1061162f5761010080835404028352916020019161165a565b820191906000526020600020905b81548152906001019060200180831161163d57829003601f168201915b50505050508152602001600582018054611673906142c0565b80601f016020809104026020016040519081016040528092919081815260200182805461169f906142c0565b80156116ec5780601f106116c1576101008083540402835291602001916116ec565b820191906000526020600020905b8154815290600101906020018083116116cf57829003601f168201915b50505050508152602001600682015481526020016007820154815260200160088201548152602001600982018054611723906142c0565b80601f016020809104026020016040519081016040528092919081815260200182805461174f906142c0565b801561179c5780601f106117715761010080835404028352916020019161179c565b820191906000526020600020905b81548152906001019060200180831161177f57829003601f168201915b50505050508152602001600a820160009054906101000a900460ff1615151515815250508282815181106117d3576117d2614739565b5b6020026020010181905250808060010191505061140b565b508092505050919050565b6117fe612898565b61180882826129e5565b5050565b61181e611817612664565b8383612a03565b5050565b600080600a60008473ffffffffffffffffffffffffffffffffffffffff1673ffffffffffffffffffffffffffffffffffffffff168152602001908152602001600020905060005b81805490508110156118b957600682828154811061188a57611889614739565b5b906000526020600020906004020160000154106118ac576001925050506118c0565b8080600101915050611869565b5060009150505b919050565b600a60205281600052604060002081815481106118e157600080fd5b90600052602060002090600402016000915091505080600001549080600101805461190b906142c0565b80601f0160208091040260200160405190810160405280929190818152602001828054611937906142c0565b80156119845780601f1061195957610100808354040283529160200191611984565b820191906000526020600020905b81548152906001019060200180831161196757829003601f168201915b505050505090806002018054611999906142c0565b80601f01602080910402602001604051908101604052809291908181526020018280546119c5906142c0565b8015611a125780601f106119e757610100808354040283529160200191611a12565b820191906000526020600020905b8154815290600101906020018083116119f557829003601f168201915b5050505050908060030154905084565b611a2d848484610e46565b611a3984848484612b72565b50505050565b6000600a60008673ffffffffffffffffffffffffffffffffffffffff1673ffffffffffffffffffffffffffffffffffffffff168152602001908152602001600020905060005b8180549050811015611b045784828281548110611aa557611aa4614739565b5b90600052602060002090600402016000015403611af7576040517f08c379a0000000000000000000000000000000000000000000000000000000008152600401611aee906147da565b60405180910390fd5b8080600101915050611a85565b50600a60008673ffffffffffffffffffffffffffffffffffffffff1673ffffffffffffffffffffffffffffffffffffffff1681526020019081526020016000206040518060800160405280868152602001611b5e87611ca2565b8152602001858152602001848152509080600181540180825580915050600190039060005260206000209060040201600090919091909150600082015181600001556020820151816001019081611bb59190614509565b506040820151816002019081611bcb9190614509565b506060820151816003015550508473ffffffffffffffffffffffffffffffffffffffff167f2c6f6aad083bd7bf32f0e2203eb0d2d5f6346033c306561b20520be7f8d4bd33611c1986611ca2565b8585604051611c2a939291906147fa565b60405180910390a25050505050565b6060611c448261259f565b506000611c4f612d29565b90506000815111611c6f5760405180602001604052806000815250611c9a565b80611c7984612d40565b604051602001611c8a92919061487b565b6040516020818303038152906040525b915050919050565b606060018203611ccc57604051806060016040528060228152602001614ad9602291399050611f55565b60028203611cf4576040518060600160405280602c8152602001614afb602c91399050611f55565b60038203611d39576040518060400160405280601f81526020017f332e2044697665722033207374617273202f20526573637565204469766572008152509050611f55565b60048203611d7e576040518060400160405280601f81526020017f342e20436f6e6669726d6564206469766572202f20446976656d6173746572008152509050611f55565b60058203611dc3576040518060400160405280601781526020017f352e20496e7374727563746f7220617373697374616e740000000000000000008152509050611f55565b60068203611e08576040518060400160405280601b81526020017f362e20496e7374727563746f72202f2044697665204c656164657200000000008152509050611f55565b60078203611e4d576040518060400160405280601581526020017f372e20496e7374727563746f72203220737461727300000000000000000000008152509050611f55565b60088203611e92576040518060400160405280601581526020017f382e20496e7374727563746f72203320737461727300000000000000000000008152509050611f55565b60098203611ed7576040518060400160405280601581526020017f392e20496e7374727563746f72203420737461727300000000000000000000008152509050611f55565b600a8203611f1c576040518060400160405280601681526020017f31302e20496e7374727563746f722035207374617273000000000000000000008152509050611f55565b6040518060400160405280601581526020017f556e6b6e6f776e2043657274696669636174696f6e000000000000000000000081525090505b919050565b6000600560008473ffffffffffffffffffffffffffffffffffffffff1673ffffffffffffffffffffffffffffffffffffffff16815260200190815260200160002060008373ffffffffffffffffffffffffffffffffffffffff1673ffffffffffffffffffffffffffffffffffffffff16815260200190815260200160002060009054906101000a900460ff16905092915050565b611ff6612898565b600073ffffffffffffffffffffffffffffffffffffffff168173ffffffffffffffffffffffffffffffffffffffff16036120685760006040517f1e4fbdf700000000000000000000000000000000000000000000000000000000815260040161205f9190613694565b60405180910390fd5b6120718161291f565b50565b61207d33611822565b6120bc576040517f08c379a00000000000000000000000000000000000000000000000000000000081526004016120b390614911565b60405180910390fd5b6007548110612100576040517f08c379a00000000000000000000000000000000000000000000000000000000081526004016120f79061433d565b60405180910390fd5b600060086000838152602001908152602001600020905080600a0160009054906101000a900460ff1615612169576040517f08c379a00000000000000000000000000000000000000000000000000000000081526004016121609061497d565b60405180910390fd5b600181600a0160006101000a81548160ff0219169083151502179055506121b48160010160009054906101000a900473ffffffffffffffffffffffffffffffffffffffff16836129e5565b3373ffffffffffffffffffffffffffffffffffffffff167f111a507246e6d784b00da1c7d76ef6cbb2c74574d983c594ef63098923ecaad8836040516121fa9190613b98565b60405180910390a25050565b60086020528060005260406000206000915090508060000154908060010160009054906101000a900473ffffffffffffffffffffffffffffffffffffffff1690806002018054612255906142c0565b80601f0160208091040260200160405190810160405280929190818152602001828054612281906142c0565b80156122ce5780601f106122a3576101008083540402835291602001916122ce565b820191906000526020600020905b8154815290600101906020018083116122b157829003601f168201915b5050505050908060030180546122e3906142c0565b80601f016020809104026020016040519081016040528092919081815260200182805461230f906142c0565b801561235c5780601f106123315761010080835404028352916020019161235c565b820191906000526020600020905b81548152906001019060200180831161233f57829003601f168201915b505050505090806004018054612371906142c0565b80601f016020809104026020016040519081016040528092919081815260200182805461239d906142c0565b80156123ea5780601f106123bf576101008083540402835291602001916123ea565b820191906000526020600020905b8154815290600101906020018083116123cd57829003601f168201915b5050505050908060050180546123ff906142c0565b80601f016020809104026020016040519081016040528092919081815260200182805461242b906142c0565b80156124785780601f1061244d57610100808354040283529160200191612478565b820191906000526020600020905b81548152906001019060200180831161245b57829003601f168201915b50505050509080600601549080600701549080600801549080600901805461249f906142c0565b80601f01602080910402602001604051908101604052809291908181526020018280546124cb906142c0565b80156125185780601f106124ed57610100808354040283529160200191612518565b820191906000526020600020905b8154815290600101906020018083116124fb57829003601f168201915b50505050509080600a0160009054906101000a900460ff1690508b565b60007f01ffc9a7000000000000000000000000000000000000000000000000000000007bffffffffffffffffffffffffffffffffffffffffffffffffffffffff1916827bffffffffffffffffffffffffffffffffffffffffffffffffffffffff1916149050919050565b6000806125ab83612e0e565b9050600073ffffffffffffffffffffffffffffffffffffffff168173ffffffffffffffffffffffffffffffffffffffff160361261e57826040517f7e2732890000000000000000000000000000000000000000000000000000000081526004016126159190613b98565b60405180910390fd5b80915050919050565b60006004600083815260200190815260200160002060009054906101000a900473ffffffffffffffffffffffffffffffffffffffff169050919050565b600033905090565b6126798383836001612e4b565b505050565b60008061268a84612e0e565b9050600073ffffffffffffffffffffffffffffffffffffffff168373ffffffffffffffffffffffffffffffffffffffff16146126cc576126cb818486613010565b5b600073ffffffffffffffffffffffffffffffffffffffff168173ffffffffffffffffffffffffffffffffffffffff161461275d5761270e600085600080612e4b565b6001600360008373ffffffffffffffffffffffffffffffffffffffff1673ffffffffffffffffffffffffffffffffffffffff168152602001908152602001600020600082825403925050819055505b600073ffffffffffffffffffffffffffffffffffffffff168573ffffffffffffffffffffffffffffffffffffffff16146127e0576001600360008773ffffffffffffffffffffffffffffffffffffffff1673ffffffffffffffffffffffffffffffffffffffff168152602001908152602001600020600082825401925050819055505b846002600086815260200190815260200160002060006101000a81548173ffffffffffffffffffffffffffffffffffffffff021916908373ffffffffffffffffffffffffffffffffffffffff160217905550838573ffffffffffffffffffffffffffffffffffffffff168273ffffffffffffffffffffffffffffffffffffffff167fddf252ad1be2c89b69c2b068fc378daa952ba7f163c4a11628f55a4df523b3ef60405160405180910390a4809150509392505050565b6128a0612664565b73ffffffffffffffffffffffffffffffffffffffff166128be61125f565b73ffffffffffffffffffffffffffffffffffffffff161461291d576128e1612664565b6040517f118cdaa70000000000000000000000000000000000000000000000000000000081526004016129149190613694565b60405180910390fd5b565b6000600660009054906101000a900473ffffffffffffffffffffffffffffffffffffffff16905081600660006101000a81548173ffffffffffffffffffffffffffffffffffffffff021916908373ffffffffffffffffffffffffffffffffffffffff1602179055508173ffffffffffffffffffffffffffffffffffffffff168173ffffffffffffffffffffffffffffffffffffffff167f8be0079c531659141344cd1fd0a4f28419497f9722a3daafe3b4186f6b6457e060405160405180910390a35050565b6129ff8282604051806020016040528060008152506130d4565b5050565b600073ffffffffffffffffffffffffffffffffffffffff168273ffffffffffffffffffffffffffffffffffffffff1603612a7457816040517f5b08ba18000000000000000000000000000000000000000000000000000000008152600401612a6b9190613694565b60405180910390fd5b80600560008573ffffffffffffffffffffffffffffffffffffffff1673ffffffffffffffffffffffffffffffffffffffff16815260200190815260200160002060008473ffffffffffffffffffffffffffffffffffffffff1673ffffffffffffffffffffffffffffffffffffffff16815260200190815260200160002060006101000a81548160ff0219169083151502179055508173ffffffffffffffffffffffffffffffffffffffff168373ffffffffffffffffffffffffffffffffffffffff167f17307eab39ab6107e8899845ad3d59bd9653f200f220920489ca2b5937696c3183604051612b659190613523565b60405180910390a3505050565b60008373ffffffffffffffffffffffffffffffffffffffff163b1115612d23578273ffffffffffffffffffffffffffffffffffffffff1663150b7a02612bb6612664565b8685856040518563ffffffff1660e01b8152600401612bd894939291906149f2565b6020604051808303816000875af1925050508015612c1457506040513d601f19601f82011682018060405250810190612c119190614a53565b60015b612c98573d8060008114612c44576040519150601f19603f3d011682016040523d82523d6000602084013e612c49565b606091505b506000815103612c9057836040517f64a0ae92000000000000000000000000000000000000000000000000000000008152600401612c879190613694565b60405180910390fd5b805181602001fd5b63150b7a0260e01b7bffffffffffffffffffffffffffffffffffffffffffffffffffffffff1916817bffffffffffffffffffffffffffffffffffffffffffffffffffffffff191614612d2157836040517f64a0ae92000000000000000000000000000000000000000000000000000000008152600401612d189190613694565b60405180910390fd5b505b50505050565b606060405180602001604052806000815250905090565b606060006001612d4f846130f0565b01905060008167ffffffffffffffff811115612d6e57612d6d6138c9565b5b6040519080825280601f01601f191660200182016040528015612da05781602001600182028036833780820191505090505b509050600082602001820190505b600115612e03578080600190039150507f3031323334353637383961626364656600000000000000000000000000000000600a86061a8153600a8581612df757612df6614a80565b5b04945060008503612dae575b819350505050919050565b60006002600083815260200190815260200160002060009054906101000a900473ffffffffffffffffffffffffffffffffffffffff169050919050565b8080612e845750600073ffffffffffffffffffffffffffffffffffffffff168273ffffffffffffffffffffffffffffffffffffffff1614155b15612fb8576000612e948461259f565b9050600073ffffffffffffffffffffffffffffffffffffffff168373ffffffffffffffffffffffffffffffffffffffff1614158015612eff57508273ffffffffffffffffffffffffffffffffffffffff168173ffffffffffffffffffffffffffffffffffffffff1614155b8015612f125750612f108184611f5a565b155b15612f5457826040517fa9fbf51f000000000000000000000000000000000000000000000000000000008152600401612f4b9190613694565b60405180910390fd5b8115612fb657838573ffffffffffffffffffffffffffffffffffffffff168273ffffffffffffffffffffffffffffffffffffffff167f8c5be1e5ebec7d5bd14f71427d1e84f3dd0314c0f7b2291e5b200ac8c7c3b92560405160405180910390a45b505b836004600085815260200190815260200160002060006101000a81548173ffffffffffffffffffffffffffffffffffffffff021916908373ffffffffffffffffffffffffffffffffffffffff16021790555050505050565b61301b838383613243565b6130cf57600073ffffffffffffffffffffffffffffffffffffffff168373ffffffffffffffffffffffffffffffffffffffff160361309057806040517f7e2732890000000000000000000000000000000000000000000000000000000081526004016130879190613b98565b60405180910390fd5b81816040517f177e802f0000000000000000000000000000000000000000000000000000000081526004016130c6929190614aaf565b60405180910390fd5b505050565b6130de8383613304565b6130eb6000848484612b72565b505050565b600080600090507a184f03e93ff9f4daa797ed6e38ed64bf6a1f010000000000000000831061314e577a184f03e93ff9f4daa797ed6e38ed64bf6a1f010000000000000000838161314457613143614a80565b5b0492506040810190505b6d04ee2d6d415b85acef8100000000831061318b576d04ee2d6d415b85acef8100000000838161318157613180614a80565b5b0492506020810190505b662386f26fc1000083106131ba57662386f26fc1000083816131b0576131af614a80565b5b0492506010810190505b6305f5e10083106131e3576305f5e10083816131d9576131d8614a80565b5b0492506008810190505b61271083106132085761271083816131fe576131fd614a80565b5b0492506004810190505b6064831061322b576064838161322157613220614a80565b5b0492506002810190505b600a831061323a576001810190505b80915050919050565b60008073ffffffffffffffffffffffffffffffffffffffff168373ffffffffffffffffffffffffffffffffffffffff16141580156132fb57508273ffffffffffffffffffffffffffffffffffffffff168473ffffffffffffffffffffffffffffffffffffffff1614806132bc57506132bb8484611f5a565b5b806132fa57508273ffffffffffffffffffffffffffffffffffffffff166132e283612627565b73ffffffffffffffffffffffffffffffffffffffff16145b5b90509392505050565b600073ffffffffffffffffffffffffffffffffffffffff168273ffffffffffffffffffffffffffffffffffffffff16036133765760006040517f64a0ae9200000000000000000000000000000000000000000000000000000000815260040161336d9190613694565b60405180910390fd5b60006133848383600061267e565b9050600073ffffffffffffffffffffffffffffffffffffffff168173ffffffffffffffffffffffffffffffffffffffff16146133f85760006040517f73c6ac6e0000000000000000000000000000000000000000000000000000000081526004016133ef9190613694565b60405180910390fd5b505050565b60405180610160016040528060008152602001600073ffffffffffffffffffffffffffffffffffffffff16815260200160608152602001606081526020016060815260200160608152602001600081526020016000815260200160008152602001606081526020016000151581525090565b6000604051905090565b600080fd5b600080fd5b60007fffffffff0000000000000000000000000000000000000000000000000000000082169050919050565b6134b881613483565b81146134c357600080fd5b50565b6000813590506134d5816134af565b92915050565b6000602082840312156134f1576134f0613479565b5b60006134ff848285016134c6565b91505092915050565b60008115159050919050565b61351d81613508565b82525050565b60006020820190506135386000830184613514565b92915050565b600081519050919050565b600082825260208201905092915050565b60005b8381101561357857808201518184015260208101905061355d565b60008484015250505050565b6000601f19601f8301169050919050565b60006135a08261353e565b6135aa8185613549565b93506135ba81856020860161355a565b6135c381613584565b840191505092915050565b600060208201905081810360008301526135e88184613595565b905092915050565b6000819050919050565b613603816135f0565b811461360e57600080fd5b50565b600081359050613620816135fa565b92915050565b60006020828403121561363c5761363b613479565b5b600061364a84828501613611565b91505092915050565b600073ffffffffffffffffffffffffffffffffffffffff82169050919050565b600061367e82613653565b9050919050565b61368e81613673565b82525050565b60006020820190506136a96000830184613685565b92915050565b6136b881613673565b81146136c357600080fd5b50565b6000813590506136d5816136af565b92915050565b600080604083850312156136f2576136f1613479565b5b6000613700858286016136c6565b925050602061371185828601613611565b9150509250929050565b613724816135f0565b82525050565b61373381613673565b82525050565b600082825260208201905092915050565b60006137558261353e565b61375f8185613739565b935061376f81856020860161355a565b61377881613584565b840191505092915050565b61378c81613508565b82525050565b6000610160830160008301516137ab600086018261371b565b5060208301516137be602086018261372a565b50604083015184820360408601526137d6828261374a565b915050606083015184820360608601526137f0828261374a565b9150506080830151848203608086015261380a828261374a565b91505060a083015184820360a0860152613824828261374a565b91505060c083015161383960c086018261371b565b5060e083015161384c60e086018261371b565b5061010083015161386161010086018261371b565b5061012083015184820361012086015261387b828261374a565b915050610140830151613892610140860182613783565b508091505092915050565b600060208201905081810360008301526138b78184613792565b905092915050565b600080fd5b600080fd5b7f4e487b7100000000000000000000000000000000000000000000000000000000600052604160045260246000fd5b61390182613584565b810181811067ffffffffffffffff821117156139205761391f6138c9565b5b80604052505050565b600061393361346f565b905061393f82826138f8565b919050565b600067ffffffffffffffff82111561395f5761395e6138c9565b5b61396882613584565b9050602081019050919050565b82818337600083830152505050565b600061399761399284613944565b613929565b9050828152602081018484840111156139b3576139b26138c4565b5b6139be848285613975565b509392505050565b600082601f8301126139db576139da6138bf565b5b81356139eb848260208601613984565b91505092915050565b600080600080600080600080610100898b031215613a1557613a14613479565b5b600089013567ffffffffffffffff811115613a3357613a3261347e565b5b613a3f8b828c016139c6565b985050602089013567ffffffffffffffff811115613a6057613a5f61347e565b5b613a6c8b828c016139c6565b975050604089013567ffffffffffffffff811115613a8d57613a8c61347e565b5b613a998b828c016139c6565b965050606089013567ffffffffffffffff811115613aba57613ab961347e565b5b613ac68b828c016139c6565b9550506080613ad78b828c01613611565b94505060a0613ae88b828c01613611565b93505060c0613af98b828c01613611565b92505060e089013567ffffffffffffffff811115613b1a57613b1961347e565b5b613b268b828c016139c6565b9150509295985092959890939650565b600080600060608486031215613b4f57613b4e613479565b5b6000613b5d868287016136c6565b9350506020613b6e868287016136c6565b9250506040613b7f86828701613611565b9150509250925092565b613b92816135f0565b82525050565b6000602082019050613bad6000830184613b89565b92915050565b600060208284031215613bc957613bc8613479565b5b6000613bd7848285016136c6565b91505092915050565b600081519050919050565b600082825260208201905092915050565b6000819050602082019050919050565b6000608083016000830151613c24600086018261371b565b5060208301518482036020860152613c3c828261374a565b91505060408301518482036040860152613c56828261374a565b9150506060830151613c6b606086018261371b565b508091505092915050565b6000613c828383613c0c565b905092915050565b6000602082019050919050565b6000613ca282613be0565b613cac8185613beb565b935083602082028501613cbe85613bfc565b8060005b85811015613cfa5784840389528151613cdb8582613c76565b9450613ce683613c8a565b925060208a01995050600181019050613cc2565b50829750879550505050505092915050565b60006020820190508181036000830152613d268184613c97565b905092915050565b600081519050919050565b600082825260208201905092915050565b6000819050602082019050919050565b600061016083016000830151613d73600086018261371b565b506020830151613d86602086018261372a565b5060408301518482036040860152613d9e828261374a565b91505060608301518482036060860152613db8828261374a565b91505060808301518482036080860152613dd2828261374a565b91505060a083015184820360a0860152613dec828261374a565b91505060c0830151613e0160c086018261371b565b5060e0830151613e1460e086018261371b565b50610100830151613e2961010086018261371b565b50610120830151848203610120860152613e43828261374a565b915050610140830151613e5a610140860182613783565b508091505092915050565b6000613e718383613d5a565b905092915050565b6000602082019050919050565b6000613e9182613d2e565b613e9b8185613d39565b935083602082028501613ead85613d4a565b8060005b85811015613ee95784840389528151613eca8582613e65565b9450613ed583613e79565b925060208a01995050600181019050613eb1565b50829750879550505050505092915050565b60006020820190508181036000830152613f158184613e86565b905092915050565b613f2681613508565b8114613f3157600080fd5b50565b600081359050613f4381613f1d565b92915050565b60008060408385031215613f6057613f5f613479565b5b6000613f6e858286016136c6565b9250506020613f7f85828601613f34565b9150509250929050565b6000608082019050613f9e6000830187613b89565b8181036020830152613fb08186613595565b90508181036040830152613fc48185613595565b9050613fd36060830184613b89565b95945050505050565b600067ffffffffffffffff821115613ff757613ff66138c9565b5b61400082613584565b9050602081019050919050565b600061402061401b84613fdc565b613929565b90508281526020810184848401111561403c5761403b6138c4565b5b614047848285613975565b509392505050565b600082601f830112614064576140636138bf565b5b813561407484826020860161400d565b91505092915050565b6000806000806080858703121561409757614096613479565b5b60006140a5878288016136c6565b94505060206140b6878288016136c6565b93505060406140c787828801613611565b925050606085013567ffffffffffffffff8111156140e8576140e761347e565b5b6140f48782880161404f565b91505092959194509250565b6000806000806080858703121561411a57614119613479565b5b6000614128878288016136c6565b945050602061413987828801613611565b935050604085013567ffffffffffffffff81111561415a5761415961347e565b5b614166878288016139c6565b925050606061417787828801613611565b91505092959194509250565b6000806040838503121561419a57614199613479565b5b60006141a8858286016136c6565b92505060206141b9858286016136c6565b9150509250929050565b6000610160820190506141d9600083018e613b89565b6141e6602083018d613685565b81810360408301526141f8818c613595565b9050818103606083015261420c818b613595565b90508181036080830152614220818a613595565b905081810360a08301526142348189613595565b905061424360c0830188613b89565b61425060e0830187613b89565b61425e610100830186613b89565b8181036101208301526142718185613595565b9050614281610140830184613514565b9c9b505050505050505050505050565b7f4e487b7100000000000000000000000000000000000000000000000000000000600052602260045260246000fd5b600060028204905060018216806142d857607f821691505b6020821081036142eb576142ea614291565b5b50919050565b7f4469766520646f6573206e6f742065786973742e000000000000000000000000600082015250565b6000614327601483613549565b9150614332826142f1565b602082019050919050565b600060208201905081810360008301526143568161431a565b9050919050565b60008190508160005260206000209050919050565b60006020601f8301049050919050565b600082821b905092915050565b6000600883026143bf7fffffffffffffffffffffffffffffffffffffffffffffffffffffffffffffffff82614382565b6143c98683614382565b95508019841693508086168417925050509392505050565b6000819050919050565b60006144066144016143fc846135f0565b6143e1565b6135f0565b9050919050565b6000819050919050565b614420836143eb565b61443461442c8261440d565b84845461438f565b825550505050565b600090565b61444961443c565b614454818484614417565b505050565b5b818110156144785761446d600082614441565b60018101905061445a565b5050565b601f8211156144bd5761448e8161435d565b61449784614372565b810160208510156144a6578190505b6144ba6144b285614372565b830182614459565b50505b505050565b600082821c905092915050565b60006144e0600019846008026144c2565b1980831691505092915050565b60006144f983836144cf565b9150826002028217905092915050565b6145128261353e565b67ffffffffffffffff81111561452b5761452a6138c9565b5b61453582546142c0565b61454082828561447c565b600060209050601f8311600181146145735760008415614561578287015190505b61456b85826144ed565b8655506145d3565b601f1984166145818661435d565b60005b828110156145a957848901518255600182019150602085019450602081019050614584565b868310156145c657848901516145c2601f8916826144cf565b8355505b6001600288020188555050505b505050505050565b6000610120820190506145f1600083018c613b89565b8181036020830152614603818b613595565b90508181036040830152614617818a613595565b9050818103606083015261462b8189613595565b9050818103608083015261463f8188613595565b905061464e60a0830187613b89565b61465b60c0830186613b89565b61466860e0830185613b89565b81810361010083015261467b8184613595565b90509a9950505050505050505050565b7f4e487b7100000000000000000000000000000000000000000000000000000000600052601160045260246000fd5b60006146c5826135f0565b91507fffffffffffffffffffffffffffffffffffffffffffffffffffffffffffffffff82036146f7576146f661468b565b5b600182019050919050565b60006060820190506147176000830186613685565b6147246020830185613b89565b6147316040830184613685565b949350505050565b7f4e487b7100000000000000000000000000000000000000000000000000000000600052603260045260246000fd5b7f43657274696669636174696f6e2077697468207468652073616d65206c65766560008201527f6c20616c72656164792065786973747320666f7220746869732064697665722e602082015250565b60006147c4604083613549565b91506147cf82614768565b604082019050919050565b600060208201905081810360008301526147f3816147b7565b9050919050565b600060608201905081810360008301526148148186613595565b905081810360208301526148288185613595565b90506148376040830184613b89565b949350505050565b600081905092915050565b60006148558261353e565b61485f818561483f565b935061486f81856020860161355a565b80840191505092915050565b6000614887828561484a565b9150614893828461484a565b91508190509392505050565b7f4f6e6c7920616e20696e7374727563746f722063616e20706572666f726d207460008201527f68697320616374696f6e2e000000000000000000000000000000000000000000602082015250565b60006148fb602b83613549565b91506149068261489f565b604082019050919050565b6000602082019050818103600083015261492a816148ee565b9050919050565b7f4469766520697320616c72656164792076616c6964617465642e000000000000600082015250565b6000614967601a83613549565b915061497282614931565b602082019050919050565b600060208201905081810360008301526149968161495a565b9050919050565b600081519050919050565b600082825260208201905092915050565b60006149c48261499d565b6149ce81856149a8565b93506149de81856020860161355a565b6149e781613584565b840191505092915050565b6000608082019050614a076000830187613685565b614a146020830186613685565b614a216040830185613b89565b8181036060830152614a3381846149b9565b905095945050505050565b600081519050614a4d816134af565b92915050565b600060208284031215614a6957614a68613479565b5b6000614a7784828501614a3e565b91505092915050565b7f4e487b7100000000000000000000000000000000000000000000000000000000600052601260045260246000fd5b6000604082019050614ac46000830185613685565b614ad16020830184613b89565b939250505056fe312e20446976657220312073746172202f204f70656e205761746572204469766572322e2044697665722032207374617273202f20416476616e636564204f70656e205761746572204469766572a2646970667358221220025e0aebef677f9d09c464cc7b0e8f92eaf4f07f70ade845a1148c0ee83edd2c64736f6c63430008180033",
  "linkReferences": {},
  "deployedLinkReferences": {}
}